{
  "contractName": "Calculator",
  "abi": [
    {
      "constant": true,
      "inputs": [
        {
          "internalType": "int256",
          "name": "x",
          "type": "int256"
        },
        {
          "internalType": "int256",
          "name": "y",
          "type": "int256"
        }
      ],
      "name": "plus",
      "outputs": [
        {
          "internalType": "int256",
          "name": "",
          "type": "int256"
        }
      ],
      "payable": false,
      "stateMutability": "pure",
      "type": "function"
    },
    {
      "constant": true,
      "inputs": [
        {
          "internalType": "int256",
          "name": "x",
          "type": "int256"
        },
        {
          "internalType": "int256",
          "name": "y",
          "type": "int256"
        }
      ],
      "name": "minus",
      "outputs": [
        {
          "internalType": "int256",
          "name": "",
          "type": "int256"
        }
      ],
      "payable": false,
      "stateMutability": "pure",
      "type": "function"
    },
    {
      "constant": true,
      "inputs": [
        {
          "internalType": "int256",
          "name": "x",
          "type": "int256"
        },
        {
          "internalType": "int256",
          "name": "y",
          "type": "int256"
        }
      ],
      "name": "divide",
      "outputs": [
        {
          "internalType": "int256",
          "name": "",
          "type": "int256"
        }
      ],
      "payable": false,
      "stateMutability": "pure",
      "type": "function"
    },
    {
      "constant": true,
      "inputs": [
        {
          "internalType": "int256",
          "name": "x",
          "type": "int256"
        },
        {
          "internalType": "int256",
          "name": "y",
          "type": "int256"
        }
      ],
      "name": "moltiplie",
      "outputs": [
        {
          "internalType": "int256",
          "name": "",
          "type": "int256"
        }
      ],
      "payable": false,
      "stateMutability": "pure",
      "type": "function"
    }
  ],
  "bytecode": "0x608060405234801561001057600080fd5b50610267806100206000396000f3fe608060405234801561001057600080fd5b506004361061004c5760003560e01c80631858c77d14610051578063a9eef4641461009d578063ccf65503146100e9578063f598423614610135575b600080fd5b6100876004803603604081101561006757600080fd5b810190808035906020019092919080359060200190929190505050610181565b6040518082815260200191505060405180910390f35b6100d3600480360360408110156100b357600080fd5b81019080803590602001909291908035906020019092919050505061018e565b6040518082815260200191505060405180910390f35b61011f600480360360408110156100ff57600080fd5b81019080803590602001909291908035906020019092919050505061019b565b6040518082815260200191505060405180910390f35b61016b6004803603604081101561014b57600080fd5b8101908080359060200190929190803590602001909291905050506101a8565b6040518082815260200191505060405180910390f35b6000818303905092915050565b6000818302905092915050565b6000818301905092915050565b600080821415610220576040517f08c379a000000000000000000000000000000000000000000000000000000000815260040180806020018281038252600d8152602001807f6572726f722c207920697320300000000000000000000000000000000000000081525060200191505060405180910390fd5b81838161022957fe5b0590509291505056fea265627a7a72315820173ae5eb4ed7756f073b9209ffeba8d186fe8799d72d8269ce96b5bf30cb65f064736f6c63430005100032",
  "source": "pragma solidity >=0.4.0 <=0.8.0;\r\n\r\ncontract Calculator {\r\n  function plus(int x, int y) public pure returns(int){\r\n    return (x+y);\r\n  }\r\n\r\n  function minus(int x, int y) public pure returns(int){\r\n    return (x-y);\r\n  }\r\n\r\n  function divide(int x, int y) public pure returns(int){\r\n    require(y!=0, \"error, y is 0\");\r\n    return (x/y);\r\n  }\r\n\r\n  function moltiplie(int x, int y) public pure returns(int){\r\n    return (x*y);\r\n  }\r\n}",
  "sourcePath": "C:\\Users\\georg\\Desktop\\Code\\BlockChain\\calculator\\contracts\\Calculator.sol",
  "compiler": {
    "name": "solc",
    "version": "0.5.16+commit.9c3226ce.Emscripten.clang"
  },
  "schemaVersion": "3.0.23",
  "updatedAt": "2020-11-11T16:20:37.033Z",
  "devdoc": {
    "methods": {}
  },
  "userdoc": {
    "methods": {}
  }
}