{
  "contractName": "SimpleStorage",
  "abi": [
    {
      "constant": false,
      "inputs": [
        {
          "name": "x",
          "type": "uint256"
        }
      ],
      "name": "set",
      "outputs": [],
      "payable": false,
      "stateMutability": "nonpayable",
      "type": "function"
    },
    {
      "constant": true,
      "inputs": [],
      "name": "get",
      "outputs": [
        {
          "name": "",
          "type": "uint256"
        }
      ],
      "payable": false,
      "stateMutability": "view",
      "type": "function"
    }
  ],
  "bytecode": "0x608060405234801561001057600080fd5b5060e68061001f6000396000f3fe6080604052600436106043576000357c01000000000000000000000000000000000000000000000000000000009004806360fe47b11460485780636d4ce63c14607f575b600080fd5b348015605357600080fd5b50607d60048036036020811015606857600080fd5b810190808035906020019092919050505060a7565b005b348015608a57600080fd5b50609160b1565b6040518082815260200191505060405180910390f35b8060008190555050565b6000805490509056fea165627a7a72305820d4f83c7fb809542f0e9e60965828967993132adc159291d2d364685a29754b740029",
  "source": "// SPDX-License-Identifier: MIT\r\npragma solidity >=0.4.21 <0.8.0;\r\n\r\ncontract SimpleStorage {\r\n  uint storedData;\r\n\r\n  function set(uint x) public {\r\n    storedData = x;\r\n  }\r\n\r\n  function get() public view returns (uint) {\r\n    return storedData;\r\n  }\r\n}\r\n",
  "sourcePath": "C:/Users/georg/Desktop/Code/BlockChain/starter-Kit/contracts/SimpleStorage.sol",
  "compiler": {
    "name": "solc",
    "version": "0.5.1+commit.c8a2cb62.Emscripten.clang"
  },
  "schemaVersion": "3.3.2",
  "updatedAt": "2020-11-18T16:56:47.191Z",
  "networkType": "ethereum",
  "devdoc": {
    "methods": {}
  },
  "userdoc": {
    "methods": {}
  }
}